{
  "contractName": "Ballot",
  "abi": [
    {
      "inputs": [
        {
          "internalType": "bytes32[]",
          "name": "proposalNames",
          "type": "bytes32[]"
        }
      ],
      "payable": false,
      "stateMutability": "nonpayable",
      "type": "constructor"
    },
    {
      "constant": true,
      "inputs": [],
      "name": "chairperson",
      "outputs": [
        {
          "internalType": "address",
          "name": "",
          "type": "address"
        }
      ],
      "payable": false,
      "stateMutability": "view",
      "type": "function"
    },
    {
      "constant": true,
      "inputs": [
        {
          "internalType": "uint256",
          "name": "",
          "type": "uint256"
        }
      ],
      "name": "proposals",
      "outputs": [
        {
          "internalType": "bytes32",
          "name": "name",
          "type": "bytes32"
        },
        {
          "internalType": "uint256",
          "name": "voteCount",
          "type": "uint256"
        }
      ],
      "payable": false,
      "stateMutability": "view",
      "type": "function"
    },
    {
      "constant": true,
      "inputs": [
        {
          "internalType": "address",
          "name": "",
          "type": "address"
        }
      ],
      "name": "voters",
      "outputs": [
        {
          "internalType": "uint256",
          "name": "weight",
          "type": "uint256"
        },
        {
          "internalType": "bool",
          "name": "voted",
          "type": "bool"
        },
        {
          "internalType": "address",
          "name": "delegate",
          "type": "address"
        },
        {
          "internalType": "uint256",
          "name": "vote",
          "type": "uint256"
        }
      ],
      "payable": false,
      "stateMutability": "view",
      "type": "function"
    },
    {
      "constant": false,
      "inputs": [
        {
          "internalType": "address",
          "name": "voter",
          "type": "address"
        }
      ],
      "name": "giveRightToVote",
      "outputs": [],
      "payable": false,
      "stateMutability": "nonpayable",
      "type": "function"
    },
    {
      "constant": false,
      "inputs": [
        {
          "internalType": "address",
          "name": "to",
          "type": "address"
        }
      ],
      "name": "delegate",
      "outputs": [],
      "payable": false,
      "stateMutability": "nonpayable",
      "type": "function"
    },
    {
      "constant": false,
      "inputs": [
        {
          "internalType": "uint256",
          "name": "proposal",
          "type": "uint256"
        }
      ],
      "name": "vote",
      "outputs": [],
      "payable": false,
      "stateMutability": "nonpayable",
      "type": "function"
    },
    {
      "constant": true,
      "inputs": [],
      "name": "winningProposal",
      "outputs": [
        {
          "internalType": "uint256",
          "name": "winningProposal_",
          "type": "uint256"
        }
      ],
      "payable": false,
      "stateMutability": "view",
      "type": "function"
    },
    {
      "constant": true,
      "inputs": [],
      "name": "winnerName",
      "outputs": [
        {
          "internalType": "bytes32",
          "name": "winnerName_",
          "type": "bytes32"
        }
      ],
      "payable": false,
      "stateMutability": "view",
      "type": "function"
    }
  ],
  "bytecode": "0x608060405234801561001057600080fd5b50604051610e29380380610e298339818101604052602081101561003357600080fd5b810190808051604051939291908464010000000082111561005357600080fd5b8382019150602082018581111561006957600080fd5b825186602082028301116401000000008211171561008657600080fd5b8083526020830192505050908051906020019060200280838360005b838110156100bd5780820151818401526020810190506100a2565b50505050905001604052505050336000806101000a81548173ffffffffffffffffffffffffffffffffffffffff021916908373ffffffffffffffffffffffffffffffffffffffff16021790555060018060008060009054906101000a900473ffffffffffffffffffffffffffffffffffffffff1673ffffffffffffffffffffffffffffffffffffffff1673ffffffffffffffffffffffffffffffffffffffff1681526020019081526020016000206000018190555060008090505b81518110156101fb576002604051806040016040528084848151811061019a57fe5b6020026020010151815260200160008152509080600181540180825580915050906001820390600052602060002090600202016000909192909190915060008201518160000155602082015181600101555050508080600101915050610178565b5050610c1d8061020c6000396000f3fe608060405234801561001057600080fd5b50600436106100885760003560e01c8063609ff1bd1161005b578063609ff1bd146101925780639e7b8d61146101b0578063a3ec138d146101f4578063e2ba53f01461029157610088565b80630121b93f1461008d578063013cf08b146100bb5780632e4176cf146101045780635c19a95c1461014e575b600080fd5b6100b9600480360360208110156100a357600080fd5b81019080803590602001909291905050506102af565b005b6100e7600480360360208110156100d157600080fd5b810190808035906020019092919050505061044c565b604051808381526020018281526020019250505060405180910390f35b61010c61047d565b604051808273ffffffffffffffffffffffffffffffffffffffff1673ffffffffffffffffffffffffffffffffffffffff16815260200191505060405180910390f35b6101906004803603602081101561016457600080fd5b81019080803573ffffffffffffffffffffffffffffffffffffffff1690602001909291905050506104a2565b005b61019a6108be565b6040518082815260200191505060405180910390f35b6101f2600480360360208110156101c657600080fd5b81019080803573ffffffffffffffffffffffffffffffffffffffff169060200190929190505050610935565b005b6102366004803603602081101561020a57600080fd5b81019080803573ffffffffffffffffffffffffffffffffffffffff169060200190929190505050610b36565b60405180858152602001841515151581526020018373ffffffffffffffffffffffffffffffffffffffff1673ffffffffffffffffffffffffffffffffffffffff16815260200182815260200194505050505060405180910390f35b610299610b93565b6040518082815260200191505060405180910390f35b6000600160003373ffffffffffffffffffffffffffffffffffffffff1673ffffffffffffffffffffffffffffffffffffffff168152602001908152602001600020905060008160000154141561036d576040517f08c379a00000000000000000000000000000000000000000000000000000000081526004018080602001828103825260148152602001807f486173206e6f20726967687420746f20766f746500000000000000000000000081525060200191505060405180910390fd5b8060010160009054906101000a900460ff16156103f2576040517f08c379a000000000000000000000000000000000000000000000000000000000815260040180806020018281038252600e8152602001807f416c726561647920766f7465642e00000000000000000000000000000000000081525060200191505060405180910390fd5b60018160010160006101000a81548160ff02191690831515021790555081816002018190555080600001546002838154811061042a57fe5b9060005260206000209060020201600101600082825401925050819055505050565b6002818154811061045957fe5b90600052602060002090600202016000915090508060000154908060010154905082565b6000809054906101000a900473ffffffffffffffffffffffffffffffffffffffff1681565b6000600160003373ffffffffffffffffffffffffffffffffffffffff1673ffffffffffffffffffffffffffffffffffffffff16815260200190815260200160002090508060010160009054906101000a900460ff161561056a576040517f08c379a00000000000000000000000000000000000000000000000000000000081526004018080602001828103825260128152602001807f596f7520616c726561647920766f7465642e000000000000000000000000000081525060200191505060405180910390fd5b3373ffffffffffffffffffffffffffffffffffffffff168273ffffffffffffffffffffffffffffffffffffffff16141561060c576040517f08c379a000000000000000000000000000000000000000000000000000000000815260040180806020018281038252601e8152602001807f53656c662d64656c65676174696f6e20697320646973616c6c6f7765642e000081525060200191505060405180910390fd5b5b600073ffffffffffffffffffffffffffffffffffffffff16600160008473ffffffffffffffffffffffffffffffffffffffff1673ffffffffffffffffffffffffffffffffffffffff16815260200190815260200160002060010160019054906101000a900473ffffffffffffffffffffffffffffffffffffffff1673ffffffffffffffffffffffffffffffffffffffff16146107af57600160008373ffffffffffffffffffffffffffffffffffffffff1673ffffffffffffffffffffffffffffffffffffffff16815260200190815260200160002060010160019054906101000a900473ffffffffffffffffffffffffffffffffffffffff1691503373ffffffffffffffffffffffffffffffffffffffff168273ffffffffffffffffffffffffffffffffffffffff1614156107aa576040517f08c379a00000000000000000000000000000000000000000000000000000000081526004018080602001828103825260198152602001807f466f756e64206c6f6f7020696e2064656c65676174696f6e2e0000000000000081525060200191505060405180910390fd5b61060d565b60018160010160006101000a81548160ff021916908315150217905550818160010160016101000a81548173ffffffffffffffffffffffffffffffffffffffff021916908373ffffffffffffffffffffffffffffffffffffffff1602179055506000600160008473ffffffffffffffffffffffffffffffffffffffff1673ffffffffffffffffffffffffffffffffffffffff16815260200190815260200160002090508060010160009054906101000a900460ff16156108a2578160000154600282600201548154811061087f57fe5b9060005260206000209060020201600101600082825401925050819055506108b9565b816000015481600001600082825401925050819055505b505050565b6000806000905060008090505b6002805490508110156109305781600282815481106108e657fe5b9060005260206000209060020201600101541115610923576002818154811061090b57fe5b90600052602060002090600202016001015491508092505b80806001019150506108cb565b505090565b6000809054906101000a900473ffffffffffffffffffffffffffffffffffffffff1673ffffffffffffffffffffffffffffffffffffffff163373ffffffffffffffffffffffffffffffffffffffff16146109da576040517f08c379a0000000000000000000000000000000000000000000000000000000008152600401808060200182810382526028815260200180610bc16028913960400191505060405180910390fd5b600160008273ffffffffffffffffffffffffffffffffffffffff1673ffffffffffffffffffffffffffffffffffffffff16815260200190815260200160002060010160009054906101000a900460ff1615610a9d576040517f08c379a00000000000000000000000000000000000000000000000000000000081526004018080602001828103825260188152602001807f54686520766f74657220616c726561647920766f7465642e000000000000000081525060200191505060405180910390fd5b6000600160008373ffffffffffffffffffffffffffffffffffffffff1673ffffffffffffffffffffffffffffffffffffffff1681526020019081526020016000206000015414610aec57600080fd5b60018060008373ffffffffffffffffffffffffffffffffffffffff1673ffffffffffffffffffffffffffffffffffffffff1681526020019081526020016000206000018190555050565b60016020528060005260406000206000915090508060000154908060010160009054906101000a900460ff16908060010160019054906101000a900473ffffffffffffffffffffffffffffffffffffffff16908060020154905084565b60006002610b9f6108be565b81548110610ba957fe5b90600052602060002090600202016000015490509056fe4f6e6c79206368616972706572736f6e2063616e206769766520726967687420746f20766f74652ea265627a7a72315820b5509633891f70754412eb6043754d631247db878599c0cf71eb88de59d58e8a64736f6c63430005100032",
  "source": "// SPDX-License-Identifier: GPL-3.0\n\npragma solidity >=0.4.22 <0.9.0;\n\n/**\n * @title Ballot\n * @dev Implements voting process along with vote delegation\n */\ncontract Ballot {\n\n    struct Voter {\n        uint weight; // weight is accumulated by delegation\n        bool voted;  // if true, that person already voted\n        address delegate; // person delegated to\n        uint vote;   // index of the voted proposal\n    }\n\n    struct Proposal {\n        // If you can limit the length to a certain number of bytes,\n        // always use one of bytes1 to bytes32 because they are much cheaper\n        bytes32 name;   // short name (up to 32 bytes)\n        uint voteCount; // number of accumulated votes\n    }\n\n    address public chairperson;\n\n    mapping(address => Voter) public voters;\n\n    Proposal[] public proposals;\n\n    /**\n     * @dev Create a new ballot to choose one of 'proposalNames'.\n     * @param proposalNames names of proposals\n     */\n    constructor(bytes32[] memory proposalNames) public {\n        chairperson = msg.sender;\n        voters[chairperson].weight = 1;\n\n        for (uint i = 0; i < proposalNames.length; i++) {\n            // 'Proposal({...})' creates a temporary\n            // Proposal object and 'proposals.push(...)'\n            // appends it to the end of 'proposals'.\n            proposals.push(Proposal({\n                name: proposalNames[i],\n                voteCount: 0\n            }));\n        }\n    }\n\n    /**\n     * @dev Give 'voter' the right to vote on this ballot. May only be called by 'chairperson'.\n     * @param voter address of voter\n     */\n    function giveRightToVote(address voter) public {\n        require(\n            msg.sender == chairperson,\n            \"Only chairperson can give right to vote.\"\n        );\n        require(\n            !voters[voter].voted,\n            \"The voter already voted.\"\n        );\n        require(voters[voter].weight == 0);\n        voters[voter].weight = 1;\n    }\n\n    /**\n     * @dev Delegate your vote to the voter 'to'.\n     * @param to address to which vote is delegated\n     */\n    function delegate(address to) public {\n        Voter storage sender = voters[msg.sender];\n        require(!sender.voted, \"You already voted.\");\n        require(to != msg.sender, \"Self-delegation is disallowed.\");\n\n        while (voters[to].delegate != address(0)) {\n            to = voters[to].delegate;\n\n            // We found a loop in the delegation, not allowed.\n            require(to != msg.sender, \"Found loop in delegation.\");\n        }\n        sender.voted = true;\n        sender.delegate = to;\n        Voter storage delegate_ = voters[to];\n        if (delegate_.voted) {\n            // If the delegate already voted,\n            // directly add to the number of votes\n            proposals[delegate_.vote].voteCount += sender.weight;\n        } else {\n            // If the delegate did not vote yet,\n            // add to her weight.\n            delegate_.weight += sender.weight;\n        }\n    }\n\n    /**\n     * @dev Give your vote (including votes delegated to you) to proposal 'proposals[proposal].name'.\n     * @param proposal index of proposal in the proposals array\n     */\n    function vote(uint proposal) public {\n        Voter storage sender = voters[msg.sender];\n        require(sender.weight != 0, \"Has no right to vote\");\n        require(!sender.voted, \"Already voted.\");\n        sender.voted = true;\n        sender.vote = proposal;\n\n        // If 'proposal' is out of the range of the array,\n        // this will throw automatically and revert all\n        // changes.\n        proposals[proposal].voteCount += sender.weight;\n    }\n\n    /**\n     * @dev Computes the winning proposal taking all previous votes into account.\n     * @return winningProposal_ index of winning proposal in the proposals array\n     */\n    function winningProposal() public view\n            returns (uint winningProposal_)\n    {\n        uint winningVoteCount = 0;\n        for (uint p = 0; p < proposals.length; p++) {\n            if (proposals[p].voteCount > winningVoteCount) {\n                winningVoteCount = proposals[p].voteCount;\n                winningProposal_ = p;\n            }\n        }\n    }\n\n    /**\n     * @dev Calls winningProposal() function to get the index of the winner contained in the proposals array and then\n     * @return winnerName_ the name of the winner\n     */\n    function winnerName() public view\n            returns (bytes32 winnerName_)\n    {\n        winnerName_ = proposals[winningProposal()].name;\n    }\n}\n",
  "sourcePath": "/Users/jcalvare/Desktop/favor/contracts/ballot.sol",
  "compiler": {
    "name": "solc",
    "version": "0.5.16+commit.9c3226ce.Emscripten.clang"
  },
  "schemaVersion": "3.4.1",
  "updatedAt": "2021-05-15T21:46:33.530Z",
  "devdoc": {
    "details": "Implements voting process along with vote delegation",
    "methods": {
      "constructor": {
        "details": "Create a new ballot to choose one of 'proposalNames'.",
        "params": {
          "proposalNames": "names of proposals"
        }
      },
      "delegate(address)": {
        "details": "Delegate your vote to the voter 'to'.",
        "params": {
          "to": "address to which vote is delegated"
        }
      },
      "giveRightToVote(address)": {
        "details": "Give 'voter' the right to vote on this ballot. May only be called by 'chairperson'.",
        "params": {
          "voter": "address of voter"
        }
      },
      "vote(uint256)": {
        "details": "Give your vote (including votes delegated to you) to proposal 'proposals[proposal].name'.",
        "params": {
          "proposal": "index of proposal in the proposals array"
        }
      },
      "winnerName()": {
        "details": "Calls winningProposal() function to get the index of the winner contained in the proposals array and then",
        "return": "winnerName_ the name of the winner"
      },
      "winningProposal()": {
        "details": "Computes the winning proposal taking all previous votes into account.",
        "return": "winningProposal_ index of winning proposal in the proposals array"
      }
    },
    "title": "Ballot"
  },
  "userdoc": {
    "methods": {}
  }
}